{
  "contractName": "WhoWasAtUCIBlockathonOct2018",
  "abi": [
    {
      "constant": true,
      "inputs": [],
      "name": "index",
      "outputs": [
        {
          "name": "",
          "type": "uint256"
        }
      ],
      "payable": false,
      "stateMutability": "view",
      "type": "function"
    }
  ],
  "bytecode": "0x60806040526000609655348015601457600080fd5b50609e806100236000396000f300608060405260043610603f576000357c0100000000000000000000000000000000000000000000000000000000900463ffffffff1680632986c0e5146044575b600080fd5b348015604f57600080fd5b506056606c565b6040518082815260200191505060405180910390f35b609654815600a165627a7a7230582031e916dd0ec904294ddf44ea9c1e0290ca279f6a0e83ed4eba50d4e58f1a280c0029",
  "source": "pragma solidity ^0.4.24;\n\ncontract WhoWasAtUCIBlockathonOct2018 {\n\n  string[150] names;\n  uint public index = 0;\n\n  \n\n}\n",
  "sourcePath": "/Users/hpmaharaja/hustle/devworks/uci-blockchain-2018/contracts/WhoWasAtUCIBlockathonOct2018.sol",
  "compiler": {
    "name": "solc",
    "version": "0.4.24+commit.e67f0147.Emscripten.clang"
  },
  "schemaVersion": "2.0.1",
  "updatedAt": "2018-10-20T21:26:02.941Z"
}